:100000000C9435000C945D000C945D000C945D0024
:100010000C945D000C945D000C945D000C945D00EC
:100020000C945D000C945D000C945D000C94D20067
:100030000C945D000C945D000C945D000C945D00CC
:100040000C9493020C945D000C944F040C94810466
:100050000C945D000C945D000C945D000C945D00AC
:100060000C945D000C945D00A70411241FBECFEF1B
:10007000D8E0DEBFCDBF11E0A0E0B1E0EEE6FDE0EC
:1000800002C005900D92A23AB107D9F722E0A2EA88
:10009000B1E001C01D92A23AB207E1F710E0CAE652
:1000A000D0E004C02297FE010E94B106C836D107F5
:1000B000C9F70E941F010C9483060C940000CF9393
:1000C000DF93EF93FF93CFB7CF93E9E7F2E0CDB79C
:1000D000DEB72996C193D193019211922192319268
:1000E000419251926192719281929192A192B192B8
:1000F000C192D192E192F1920193119321933193A4
:10010000419351936193719381939193A193B1938F
:100110000F90DF01FF91EF91DF91CF91CD93DD93B0
:10012000ED93FD930D92DF91CF91FF91EF91ED93C0
:10013000FC93CF93DF93112489E792E00895FC01AB
:10014000C191D191CDBFDEBFA1A1B2A1AF93BF93A9
:100150000190119021903190419051906190719057
:1001600081909190A190B190C190D190E190F19047
:10017000019111912191319141915191619171912F
:1001800081919191A191B191C191D191AF93BF937F
:10019000DF01ED91FD910F920C900FBE0F90BF917A
:1001A000AF9118950E945F0011241F921F92CDB746
:1001B000DEB70E94010286E091E00E948A028BB1C4
:1001C0008F798BB95F9A8CE191E00E9481022FEFC9
:1001D00081EE94E0215080409040E1F700C00000A3
:1001E000EECF8EE191E00E948A028BB18F758BB9C0
:1001F0005E9A84E391E00E9481022FEF81EE94E009
:10020000215080409040E1F700C00000EECF86E32F
:1002100091E00E948A028BB18F738BB98BB18F638F
:100220008BB98CE491E00E9481022FEF81EE94E083
:10023000215080409040E1F700C00000ECCF0E94C8
:10024000DD02259A8AB1806E8AB915B88BB18C7F90
:100250008BB980E895E20E9477028EE491E00E94DB
:100260008102F89484E00E944B016BED70E080E81D
:1002700091E00E94AD0161EF70E086E891E00E949C
:10028000AD0167E071E08CE891E00E94AD010E9451
:1002900006020E947E06CF92DF92EF92FF920F93AA
:1002A0001F93CF93DF931092C8011092C701C82FFC
:1002B000DD27C7FDD095D093CA01C093C901009135
:1002C000D1011091D20101151105B9F06801E12C9D
:1002D000F12CEC16FD0670F4F601819191916F01FD
:1002E0009093D0018093CF010E94EF05FFEFEF1AAA
:1002F000FF0AEFCFC8010E94EF05CE01880F991FBA
:100300000E9457059093D2018093D10110928000F2
:1003100010928100109285001092840080918100DB
:100320008860809381008091810085608093810046
:1003300089E09DE3909389008093880080916F000D
:10034000826080936F0080E0DF91CF911F910F91C9
:10035000FF90EF90DF90CF900895CF92DF92EF92D1
:10036000FF920F931F93CF93DF937C016B0140911A
:10037000D1015091D2018091C9019091CA0120E030
:1003800030E02817390791F18A014E5F5F4FF8017D
:1003900060817181672B39F582E090E00E945705FA
:1003A000EC019093CE018093CD01B70188819981B2
:1003B0000E9486061A82DC82CB8281E090E09DA7B3
:1003C0008CA78091CF019091D001F8019183808317
:1003D0008091C7019091C80101969093C8018093C4
:1003E000C701CE0105C02F5F3F4FCBCF80E090E02B
:1003F000DF91CF911F910F91FF90EF90DF90CF9001
:10040000089585B190E2892785B90895DF92EF922A
:10041000FF920F931F93CF93DF9300E010E045E22C
:10042000D42E8091C9019091CA010817190708F0CC
:1004300056C07801EE0CFF1CE091D101F091D20181
:10044000EE0DFF1DC081D181209709F445C0D093E6
:10045000CC01C093CB01CE0107960E9401028AA570
:100460009BA5009759F09093C6018093C5018F8199
:1004700098859093A3018093A20116C0E2EAF1E06F
:10048000DF018D2D1D928A95E9F78B819C819093D8
:10049000C6018093C501ED81FE81CF010197909344
:1004A000A3018093A201108282EA91E00E949F0042
:1004B000C091CB01D091CC01CE010E94EF058CA55B
:1004C0009DA501979DA78CA7E091D101F091D20144
:1004D000EE0DFF1D118210820F5F1F4FA2CFDF9123
:1004E000CF911F910F91FF90EF90DF900895AC0195
:1004F000662757FD6095762F26E08CED91E00C94F1
:10050000ED03BC018CED91E00E9428058CED91E09B
:100510000C946603BC018CED91E00E9445058CEDC6
:1005200091E00C9466031F920F920FB60F92112464
:100530002F933F938F939F93AF93BF938091D40159
:100540009091D501A091D601B091D7013091D301FE
:1005500023E0230F2D3720F40196A11DB11D05C006
:1005600026E8230F0296A11DB11D2093D30180938D
:10057000D4019093D501A093D601B093D701809177
:10058000D8019091D901A091DA01B091DB010196D7
:10059000A11DB11D8093D8019093D901A093DA01D8
:1005A000B093DB01BF91AF919F918F913F912F91BC
:1005B0000F900FBE0F901F901895789484B58260AD
:1005C00084BD84B5816084BD85B5826085BD85B5F7
:1005D000816085BDEEE6F0E0808181608083E1E8A6
:1005E000F0E01082808182608083808181608083DE
:1005F000E0E8F0E0808181608083E1EBF0E08081E1
:1006000084608083E0EBF0E0808181608083EAE7B2
:10061000F0E080818460808380818260808380813B
:10062000816080838081806880831092C1000895FA
:10063000FC01818D228D90E0805C9F4F821B91098F
:100640008F7399270895FC01918D828D981731F051
:10065000828DE80FF11D858D90E008958FEF9FEF5B
:100660000895FC01918D828D981761F0828DDF01D4
:10067000A80FB11D5D968C91928D9F5F9F73928F95
:1006800090E008958FEF9FEF0895FC01848DDF01C6
:10069000A80FB11DA35ABF4F2C91848D90E00196F5
:1006A0008F739927848FA689B7892C93A089B189E4
:1006B0008C9180648C93938D848D981306C00288EE
:1006C000F389E02D80818F7D80830895CF93DF9320
:1006D000EC01888D8823C9F0EA89FB89808185FD3A
:1006E00005C0A889B9898C9186FD0FC00FB607FC9B
:1006F000F5CF808185FFF2CFA889B9898C9185FFDC
:10070000EDCFCE010E944503E7CFDF91CF91089551
:10071000CF92DF92FF920F931F93CF93DF931F929D
:10072000CDB7DEB76C01DC015B969C915B975C9664
:100730008C915C97981307C05096ED91FC9151975E
:10074000808185FD32C0F601038D10E00F5F1F4FE1
:100750000F731127F02EF601848DF81211C00FB619
:1007600007FCF9CFD6015096ED91FC91519780810D
:1007700085FFF1CFC60169830E9445036981EBCFF4
:10078000838DE80FF11DE35AFF4F6083D6015B961E
:100790000C935B975296ED91FC9153978081806208
:1007A000808381E058968C930DC0D6015696ED91CA
:1007B000FC91579760835096ED91FC915197808101
:1007C0008064808381E090E00F90DF91CF911F9152
:1007D0000F91FF90DF90CF900895BF92CF92DF925C
:1007E000EF92FF92CF93DF93EC016A017B01B22E6F
:1007F000E889F98982E08083411581EE5807610517
:100800007105A1F060E079E08DE390E0A701960129
:100810000E948D062150310941095109569547958D
:1008200037952795211580E1380798F0E889F989EF
:10083000108260E874E88EE190E0A70196010E94C2
:100840008D06215031094109510956954795379533
:100850002795EC85FD853083EE85FF852083188EF6
:10086000EC89FD89B082EA89FB898081806180837F
:10087000EA89FB89808188608083EA89FB8980819D
:1008800080688083EA89FB8980818F7D8083DF9106
:10089000CF91FF90EF90DF90CF90BF9008951F927F
:1008A0000F920FB60F9211242F938F939F93EF9374
:1008B000FF93E091EC01F091ED018081E091F20174
:1008C000F091F30182FD12C090818091F5018F5F5C
:1008D0008F732091F601821751F0E091F501F0E05D
:1008E000E452FE4F958F8093F50101C08081FF9106
:1008F000EF919F918F912F910F900FBE0F901F90AE
:1009000018951F920F920FB60F9211242F933F93B9
:100910004F935F936F937F938F939F93AF93BF9307
:10092000EF93FF938CED91E00E944503FF91EF91CF
:10093000BF91AF919F918F917F916F915F914F91F7
:100940003F912F910F900FBE0F901F90189510920E
:10095000DF011092DE0188EE93E0A0E0B0E080932A
:10096000E0019093E101A093E201B093E30186E9F5
:1009700091E09093DD018093DC0185EC90E0909311
:10098000E9018093E80184EC90E09093EB0180937F
:10099000EA0180EC90E09093ED018093EC0181EC12
:1009A00090E09093EF018093EE0182EC90E09093C1
:1009B000F1018093F00186EC90E09093F301809335
:1009C000F2011092F5011092F6011092F7011092C7
:1009D000F8010895CF92DF92EF92FF920F931F9349
:1009E000CF93DF936C017A01EB01E60EF71E00E076
:1009F00010E0CE15DF0561F06991D601ED91FC9113
:100A00000190F081E02DC6010995080F191FF1CF63
:100A1000C801DF91CF911F910F91FF90EF90DF9070
:100A2000CF9008956115710581F0DB010D900020D4
:100A3000E9F7AD0141505109461B570BDC01ED911F
:100A4000FC910280F381E02D099480E090E008950C
:100A50000C941205DC01ED91FC910190F081E02DE8
:100A600009940F931F93CF93DF93EC016DE00E94E5
:100A70002A058C016AE0CE010E942A05800F911F91
:100A8000DF91CF911F910F9108950F931F93CF93F3
:100A9000DF93EC010E9412058C01CE010E9431050A
:100AA000800F911FDF91CF911F910F910895CF93E8
:100AB000DF938230910510F482E090E0E091A00293
:100AC000F091A10220E030E0A0E0B0E0309739F1F1
:100AD0004081518148175907B8F04817590771F4F8
:100AE00082819381109729F013969C938E9312978D
:100AF0002CC09093A1028093A00227C0211531053C
:100B000031F04217530718F0A901DB0101C0EF01D2
:100B10009A01BD01DF010280F381E02DD7CF2115BD
:100B20003105F9F0281B390B2430310580F48A8116
:100B30009B816115710521F0FB019383828304C0C1
:100B40009093A1028093A002FE01329644C0FE0160
:100B5000E20FF31F81939193225031093983288347
:100B60003AC020919E0230919F02232B41F42091A4
:100B700002013091030130939F0220939E02209145
:100B80000001309101012115310541F42DB73EB727
:100B90004091040150910501241B350BE0919E0208
:100BA000F0919F02E217F307A0F42E1B3F0B2817CA
:100BB000390778F0AC014E5F5F4F2417350748F0D6
:100BC0004E0F5F1F50939F0240939E02819391931B
:100BD00002C0E0E0F0E0CF01DF91CF910895CF9324
:100BE000DF93009709F487C0FC01329713821282C9
:100BF000C091A002D091A102209781F4208131817F
:100C0000280F391F80919E0290919F0282179307AF
:100C100079F5F0939F02E0939E026DC0DE0120E023
:100C200030E0AE17BF0750F412964D915C911397C8
:100C30009D014115510509F1DA01F3CFB383A28378
:100C400040815181840F951F8A179B0771F48D9104
:100C50009C911197840F951F029691838083129621
:100C60008D919C911397938382832115310529F4EB
:100C7000F093A102E093A0023EC0D9011396FC9329
:100C8000EE9312974D915D91A40FB51FEA17FB07E4
:100C900079F480819181840F951F0296D901119674
:100CA0009C938E938281938113969C938E9312973B
:100CB000E0E0F0E08A819B81009719F0FE01EC01F1
:100CC000F9CFCE01029628813981820F931F20919E
:100CD0009E0230919F022817390769F4309729F452
:100CE0001092A1021092A00202C013821282D0932D
:100CF0009F02C0939E02DF91CF91089581E090E022
:100D0000F8940C94B506F8940C94B506FB01DC013C
:100D100001900D920020E1F70895A1E21A2EAA1B7E
:100D2000BB1BFD010DC0AA1FBB1FEE1FFF1FA2179B
:100D3000B307E407F50720F0A21BB30BE40BF50B98
:100D4000661F771F881F991F1A9469F76095709521
:100D5000809590959B01AC01BD01CF010895EE0FE8
:0E0D6000FF1F0590F491E02D0994F894FFCF49
:100D6E000000A20280000A0D5374617274696E67EE
:100D7E00204A6F6220412E2E2E0A0D002B000A0DE6
:100D8E005374617274696E67204A6F6220422E2E10
:100D9E002E0A0D002D000A0D5374617274696E6770
:100DAE00204A6F6220432E2E2E0A0D002A000A0DB5
:100DBE0041726475696E4F532076302E302E310A93
:100DCE000D2863292032303135204A6F6E617468E8
:100DDE00616E20416E646572736F6E0A0D0A0D00AE
:100DEE004A6F622041004A6F622042004A6F6220C1
:100DFE004300000000008803EA04180331032303B4
:020E0E00660379
:00000001FF
