:100000000C9435000C945D000C945D000C945D0024
:100010000C945D000C945D000C945D000C945D00EC
:100020000C945D000C945D000C945D000C94D20067
:100030000C945D000C945D000C945D000C945D00CC
:100040000C9476020C945D000C9432040C946404BD
:100050000C945D000C945D000C945D000C945D00AC
:100060000C945D000C945D008A0411241FBECFEF38
:10007000D8E0DEBFCDBF11E0A0E0B1E0E4E3FDE0F9
:1000800002C005900D92A23AB107D9F722E0A2EA88
:10009000B1E001C01D92AC39B207E1F710E0CAE649
:1000A000D0E004C02297FE010E949406C836D10712
:1000B000C9F70E941F010C9466060C940000CF93B0
:1000C000DF93EF93FF93CFB7CF93E3E7F2E0CDB7A2
:1000D000DEB72996C193D193019211922192319268
:1000E000419251926192719281929192A192B192B8
:1000F000C192D192E192F1920193119321933193A4
:10010000419351936193719381939193A193B1938F
:100110000F90DF01FF91EF91DF91CF91CD93DD93B0
:10012000ED93FD930D92DF91CF91FF91EF91ED93C0
:10013000FC93CF93DF93112483E792E00895FC01B1
:10014000C191D191CDBFDEBFA1A1B2A1AF93BF93A9
:100150000190119021903190419051906190719057
:1001600081909190A190B190C190D190E190F19047
:10017000019111912191319141915191619171912F
:1001800081919191A191B191C191D191AF93BF937F
:10019000DF01ED91FD910F920C900FBE0F90BF917A
:1001A000AF9118950E945F0011241F921F92CDB746
:1001B000DEB70E94F60186E091E00E946D028BB1ED
:1001C0008F798BB95F9A8CE191E00E9464022FEFE6
:1001D00081EE94E0215080409040E1F700C00000A3
:1001E000EECF8EE191E00E946D028BB18F758BB9DD
:1001F0005E9A84E391E00E9464022FEF81EE94E026
:10020000215080409040E1F700C00000EECF86E32F
:1002100091E00E946D028BB18F738BB98BB18F63AC
:100220008BB98CE491E00E9464022FEF81EE94E0A0
:10023000215080409040E1F700C00000ECCF0E94C8
:10024000C002259A8AB1806E8AB915B88BB18C7FAD
:100250008BB980E895E20E945A028EE491E00E94F8
:100260006402F89484E00E9466016BED70E080E81F
:1002700091E00E94AA0161EF70E086E891E00E949F
:10028000AA0167E071E08CE891E00E94AA010E9457
:10029000FC010E94610610928000E1E8F0E010820B
:1002A0001092850010928400808188608083808114
:1002B0008560808389E09DE3909389008093880026
:1002C000EFE6F0E08081826080830895BF92CF9254
:1002D000DF92EF92FF920F931F93CF93DF93B82E8D
:1002E0001092C8011092C701C82EDD24C7FCD0941B
:1002F000D092CA01C092C901C091CB01D091CC016A
:10030000209791F07E0100E010E00C151D0548F4E7
:10031000F701819191917F010E94D2050F5F1F4FDC
:10032000F4CFCE010E94D205FB2D2EE2F202C001D5
:1003300011240E943A059093CC018093CB01DF9168
:10034000CF911F910F91FF90EF90DF90CF90BF90D2
:100350000C944B01CF92DF92EF92FF920F931F9379
:10036000CF93DF937C016B014091CB015091CC0185
:100370008091C9019091CA0120E030E02817390727
:1003800051F18A014E5F5F4FF80160817181672BE7
:10039000F9F48EE290E00E943A05EC01B701888101
:1003A00099810E9469061A82DC82CB8281E090E00A
:1003B0009DA78CA7F801D183C0838091C70190913C
:1003C000C80101969093C8018093C701CE0105C072
:1003D0002F5F3F4FD3CF80E090E0DF91CF911F910F
:1003E0000F91FF90EF90DF90CF90089585B190E24C
:1003F000892785B90C944B01FF920F931F93CF93DC
:10040000DF9335E2F32E8091CB019091CC01892BC3
:1004100009F44AC000E010E08091C9019091CA013E
:100420000817190780F7E091CB01F091CC01C801C2
:10043000880F991FE80FF91FC081D181209789F19A
:100440008AA59BA5009759F09093C6018093C5019A
:100450008F8198859093A3018093A2011AC0E2EA4C
:10046000F1E0DF018F2D1D928A95E9F78B819C8148
:100470009093C6018093C501ED81FE81CF01019764
:100480009093A3018093A201108282EA91E00E94DE
:100490005F0082EA91E00E949F00CE0107960E94D1
:1004A000F6010F5F1F4FB8CFDF91CF911F910F91D2
:1004B000FF900895AC01662757FD6095762F26E0E2
:1004C00086ED91E00C94D003BC0186ED91E00E9492
:1004D0000B0586ED91E00C944903BC0186ED91E09B
:1004E0000E94280586ED91E00C9449031F920F921B
:1004F0000FB60F9211242F933F938F939F93AF9337
:10050000BF938091CE019091CF01A091D001B09185
:10051000D1013091CD0123E0230F2D3720F4019636
:10052000A11DB11D05C026E8230F0296A11DB11D16
:100530002093CD018093CE019093CF01A093D00161
:10054000B093D1018091D2019091D301A091D401B7
:10055000B091D5010196A11DB11D8093D201909358
:10056000D301A093D401B093D501BF91AF919F91D6
:100570008F913F912F910F900FBE0F901F90189564
:10058000789484B5826084BD84B5816084BD85B56E
:10059000826085BD85B5816085BDEEE6F0E0808135
:1005A00081608083E1E8F0E0108280818260808356
:1005B000808181608083E0E8F0E0808181608083D9
:1005C000E1EBF0E0808184608083E0EBF0E080810B
:1005D00081608083EAE7F0E08081846080838081AD
:1005E0008260808380818160808380818068808355
:1005F0001092C1000895FC01818D228D90E0805CF5
:100600009F4F821B91098F7399270895FC01918D4B
:10061000828D981731F0828DE80FF11D858D90E065
:1006200008958FEF9FEF0895FC01918D828D9817AB
:1006300061F0828DDF01A80FB11D5D968C91928DC6
:100640009F5F9F73928F90E008958FEF9FEF0895C3
:10065000FC01848DDF01A80FB11DA35ABF4F2C915F
:10066000848D90E001968F739927848FA689B7892E
:100670002C93A089B1898C9180648C93938D848D07
:10068000981306C00288F389E02D80818F7D8083D6
:100690000895CF93DF93EC01888D8823C9F0EA8910
:1006A000FB89808185FD05C0A889B9898C9186FD6B
:1006B0000FC00FB607FCF5CF808185FFF2CFA88968
:1006C000B9898C9185FFEDCFCE010E942803E7CF39
:1006D000DF91CF910895CF92DF92FF920F931F93F6
:1006E000CF93DF931F92CDB7DEB76C01DC015B9631
:1006F0009C915B975C968C915C97981307C0509681
:10070000ED91FC915197808185FD32C0F601038DFA
:1007100010E00F5F1F4F0F731127F02EF601848D2D
:10072000F81211C00FB607FCF9CFD6015096ED9123
:10073000FC915197808185FFF1CFC60169830E94AA
:1007400028036981EBCF838DE80FF11DE35AFF4F3A
:100750006083D6015B960C935B975296ED91FC916A
:10076000539780818062808381E058968C930DC07E
:10077000D6015696ED91FC91579760835096ED9176
:10078000FC91519780818064808381E090E00F909C
:10079000DF91CF911F910F91FF90DF90CF9008953F
:1007A000BF92CF92DF92EF92FF92CF93DF93EC0153
:1007B0006A017B01B22EE889F98982E080834115C4
:1007C00081EE580761057105A1F060E079E08DE3E5
:1007D00090E0A70196010E9470062150310941095D
:1007E00051095695479537952795211580E138078A
:1007F00098F0E889F989108260E874E88EE190E069
:10080000A70196010E947006215031094109510942
:100810005695479537952795EC85FD853083EE8570
:10082000FF852083188EEC89FD89B082EA89FB89D7
:10083000808180618083EA89FB89808188608083F0
:10084000EA89FB89808180688083EA89FB898081CD
:100850008F7D8083DF91CF91FF90EF90DF90CF90DD
:10086000BF9008951F920F920FB60F9211242F93ED
:100870008F939F93EF93FF93E091E601F091E7014F
:100880008081E091EC01F091ED0182FD12C0908138
:100890008091EF018F5F8F732091F001821751F0EB
:1008A000E091EF01F0E0EA52FE4F958F8093EF0167
:1008B00001C08081FF91EF919F918F912F910F90B7
:1008C0000FBE0F901F9018951F920F920FB60F92A8
:1008D00011242F933F934F935F936F937F938F9345
:1008E0009F93AF93BF93EF93FF9386ED91E00E94A8
:1008F0002803FF91EF91BF91AF919F918F917F91CD
:100900006F915F914F913F912F910F900FBE0F907C
:100910001F9018951092D9011092D80188EE93E09B
:10092000A0E0B0E08093DA019093DB01A093DC01BA
:10093000B093DD0186E991E09093D7018093D601D1
:1009400085EC90E09093E3018093E20184EC90E0E9
:100950009093E5018093E40180EC90E09093E701AF
:100960008093E60181EC90E09093E9018093E801A7
:1009700082EC90E09093EB018093EA0186EC90E0AA
:100980009093ED018093EC011092EF011092F00131
:100990001092F1011092F2010895CF92DF92EF923E
:1009A000FF920F931F93CF93DF936C017A01EB01BA
:1009B000E60EF71E00E010E0CE15DF0561F069914C
:1009C000D601ED91FC910190F081E02DC6010995D1
:1009D000080F191FF1CFC801DF91CF911F910F911F
:1009E000FF90EF90DF90CF9008956115710581F031
:1009F000DB010D900020E9F7AD0141505109461B84
:100A0000570BDC01ED91FC910280F381E02D0994FC
:100A100080E090E008950C94F504DC01ED91FC91E8
:100A20000190F081E02D09940F931F93CF93DF93F2
:100A3000EC016DE00E940D058C016AE0CE010E9480
:100A40000D05800F911FDF91CF911F910F91089598
:100A50000F931F93CF93DF93EC010E94F5048C0159
:100A6000CE010E941405800F911FDF91CF911F913D
:100A70000F910895CF93DF938230910510F482E0B7
:100A800090E0E0919A02F0919B0220E030E0A0E03B
:100A9000B0E0309739F14081518148175907B8F0DB
:100AA0004817590771F482819381109729F01396A2
:100AB0009C938E9312972CC090939B0280939A02E2
:100AC00027C02115310531F04217530718F0A9014D
:100AD000DB0101C0EF019A01BD01DF010280F3815A
:100AE000E02DD7CF21153105F9F0281B390B243023
:100AF000310580F48A819B816115710521F0FB012C
:100B00009383828304C090939B0280939A02FE0198
:100B1000329644C0FE01E20FF31F8193919322505D
:100B20003109398328833AC0209198023091990283
:100B3000232B41F42091020130910301309399025B
:100B40002093980220910001309101012115310577
:100B500041F42DB73EB74091040150910501241B8B
:100B6000350BE0919802F0919902E217F307A0F497
:100B70002E1B3F0B2817390778F0AC014E5F5F4FF3
:100B80002417350748F04E0F5F1F5093990240938A
:100B900098028193919302C0E0E0F0E0CF01DF91F1
:100BA000CF910895CF93DF93009709F487C0FC019C
:100BB000329713821282C0919A02D0919B022097A1
:100BC00081F420813181280F391F80919802909102
:100BD00099028217930779F5F0939902E0939802AE
:100BE0006DC0DE0120E030E0AE17BF0750F4129672
:100BF0004D915C9113979D014115510509F1DA0161
:100C0000F3CFB383A28340815181840F951F8A174C
:100C10009B0771F48D919C911197840F951F0296FB
:100C20009183808312968D919C91139793838283F5
:100C30002115310529F4F0939B02E0939A023EC0FE
:100C4000D9011396FC93EE9312974D915D91A40FE9
:100C5000B51FEA17FB0779F480819181840F951FF6
:100C60000296D90111969C938E938281938113965B
:100C70009C938E931297E0E0F0E08A819B8100972D
:100C800019F0FE01EC01F9CFCE01029628813981DD
:100C9000820F931F209198023091990228173907EB
:100CA00069F4309729F410929B0210929A0202C0C4
:100CB00013821282D0939902C0939802DF91CF9150
:100CC000089581E090E0F8940C949806F8940C94C0
:100CD0009806FB01DC0101900D920020E1F70895D8
:100CE000A1E21A2EAA1BBB1BFD010DC0AA1FBB1F30
:100CF000EE1FFF1FA217B307E407F50720F0A21BA2
:100D0000B30BE40BF50B661F771F881F991F1A940E
:100D100069F760957095809590959B01AC01BD0138
:100D2000CF010895EE0FFF1F0590F491E02D099477
:040D3000F894FFCF65
:100D340000009C0280000A0D5374617274696E672E
:100D4400204A6F6220412E2E2E0A0D002B000A0D20
:100D54005374617274696E67204A6F6220422E2E4A
:100D64002E0A0D002D000A0D5374617274696E67AA
:100D7400204A6F6220432E2E2E0A0D002A000A0DEF
:100D840041726475696E4F532076302E302E310ACD
:100D94000D2863292032303135204A6F6E61746822
:100DA400616E20416E646572736F6E0A0D0A0D00E8
:100DB4004A6F622041004A6F622042004A6F6220FB
:100DC4004300000000006B03CD04FB021403060380
:020DD4004903D1
:00000001FF
